:020000040800F2
:10000000983200209901000893180008A1170008F1
:10001000911800081B090008431F00080000000099
:1000200000000000000000000000000001010008C6
:100030001D09000800000000450100088D19000896
:10004000B3010008B3010008B3010008B3010008C0
:10005000B3010008B3010008B3010008B3010008B0
:10006000B3010008B3010008B3010008B3010008A0
:10007000B3010008B3010008B3010008B301000890
:10008000B3010008B3010008B3010008B301000880
:10009000B3010008B3010008B3010008B301000870
:1000A000B3010008B3010008B3010008B301000860
:1000B000091A0008B3010008B3010008B3010008E1
:1000C000B3010008B3010008B3010008B301000840
:1000D000B3010008B3010008B3010008B301000830
:1000E000B3010008B3010008B3010008DFF80CD029
:1000F00000F0E0FB0048004771280008983200201B
:10010000224B19680868B0E8F00F80F30988BFF344
:100110006F8F4FF0000080F311884EF00D0E704786
:100120000000000006480068006880F3088862B696
:1001300061B6BFF34F8FBFF36F8F00DF00BF00BF0B
:1001400008ED00E0EFF30980BFF36F8F0F4B1A68E3
:1001500020E9F00F106008B54FF0500080F31188CF
:10016000BFF34F8FBFF36F8F03F094FA4FF000008F
:1001700080F31188BDE8084019680868B0E8F00FFE
:1001800080F30988BFF36F8F704700BF2400002001
:10019000EFF3058070470000064880470648004797
:1001A000FEE7FEE7FEE7FEE7FEE7FEE7FEE7FEE727
:1001B000FEE7FEE7051A0008ED000008202A04DB30
:1001C000203A21FA02F00021704721FA02F3D040D0
:1001D000C2F12002914008431946704740EA0103EA
:1001E0009B0703D009E008C9121F08C0042AFAD2ED
:1001F00003E011F8013B00F8013B521EF9D27047B1
:10020000D2B201E000F8012B491EFBD27047002258
:10021000F6E710B513460A4604461946FFF7F0FF05
:10022000204610BDF0B480EA0102D40F4200B2EBC8
:10023000410F02D20246084611464A0042D0C30D81
:10024000DDB2C1F3C752AD1A202D35DAC1F3160164
:1002500041F4000204B15242C5F1200602FA06F14F
:100260002A411044B3EBD05F23D0C4B1012DA0EBE1
:10027000C35009DCF0BC4FF0004202EAC352DBB2CB
:1002800000F5000000F044B9400000F1807000EB80
:10029000C350A0F1807040EAD170490009E04908DC
:1002A00041EAC071A0EBC35000F50000400800EB2C
:1002B000C350F0BC00F023B96142012202EB4101BE
:1002C000001BF6E7F0BC704781F00041AAE780F020
:1002D0000040A7E7420005D0C0F3C7525242914206
:1002E00001DC0020704700EBC15070472DE9FE4F44
:1002F00081EA030404F0004421F0004100944FF02F
:10030000000B23F0004350EA01045ED052EA0304DC
:100310005BD0C3F30A54C1F30A552C44A4F2F3345E
:100320000194A0FB0254C1F3130141F48011C3F303
:10033000130343F4801301FB024400FB034E840AC1
:10034000970A44EA815447EA8357A4FB0768029559
:100350008D0A05FB07854FEA932C04FB0C542705F7
:10036000029D4FEA065847EA1637B5EB08056EEBD3
:10037000070C870E920E47EA811742EA8312A7FB09
:100380000201B6EB0B0164EB00042B0D43EA0C33C6
:100390005E1844EB1C50DA465146E7FB0201C5F3F8
:1003A00013044FEA0B3343EA14534FEA0432019C1F
:1003B00043EA0603A4F10C040294009CCDE900B4C6
:1003C00000F0E3F803B0BDE8F08F00200146F9E744
:1003D0000EB540F2334102910021CDE900110A46E9
:1003E0000B4600F0D2F803B000BD00F0004230F040
:1003F00000400AD0C10D01F56071C0F3160042EA59
:100400000151C20840071143704700200146704760
:1004100001F0004330B421F0004150EA010206D05F
:100420000A0DA2F56072C1F31301002A02DC30BC90
:1004300000207047440F44EAC104C100E01830BCFA
:1004400000EBC25000F05BB8002801DBC0F10040B7
:10045000002901DBC1F1004181427047002801DB26
:10046000C0F10040002901DBC1F100418842704722
:1004700030B50B46014600202022012409E021FA74
:1004800002F59D4205D303FA02F5491B04FA02F571
:100490002844151EA2F10102F1DC30BD2DE9F05F08
:1004A0000546002092469B468846064681464024E3
:1004B0001BE02846414647462246FFF77FFE53464B
:1004C0005A46C01A914110D311461846224600F0F0
:1004D00003FA2D1A67EB01084F462246012000213E
:1004E00000F0FAF917EB00094E41201EA4F10104B7
:1004F000DFDC484631462A464346BDE8F09F0029E6
:10050000A8BF7047401C490008BF20F00100704799
:1005100010B4B0FA80FC00FA0CF050EA010404BFF9
:1005200010BC704749B1CCF1200421FA04F411FA4F
:100530000CF118BF012121430843A3EB0C01CB1D93
:100540004FEA00614FEA102042BF002010BC704704
:1005500000EBC35010440029A4BF10BC7047401CDE
:10056000490008BF20F0010010BC704710B5141EF0
:1005700073F1000408DA401C41F1000192185B415C
:100580001A4301D120F0010010BD2DE9F04D924633
:100590009B4611B1B1FA81F202E0B0FA80F220324A
:1005A000904600F099F904460F4640EA0A0041EAF5
:1005B0000B0153465A46084313D0114653EA010033
:1005C00019D0C8F140025046FFF7F8FD05460E4627
:1005D00050465946424600F07FF9084305D00120B5
:1005E00004E020463946BDE8F08D0020054346EA88
:1005F000E0762C4337430A986305E40AA0EB080031
:100600000022FD0A44EA47540A3002D50020014680
:10061000E9E7010510196941DDE90845001969415B
:10062000BDE8F04DA2E72DE9FE4F804681EA0300C8
:10063000C00F0C46009021F0004123F00045B8EBBC
:100640000200A94105D24046214690461C460B4671
:10065000024623F00040104347D0270DC7F30A009D
:10066000C3F30A510290401A019040286BDAC3F399
:10067000130040F4801B0098924620B10023D2EB77
:10068000030A63EB0B0B01985946C0F14002504638
:1006900000F022F906460D4650465946019A00F0F0
:1006A0002AF910EB08006141002487EA115284EA1C
:1006B000E7731A4340D0009A62B3019A012A4FEAC5
:1006C000075215DC001B61EB02014FF0004202EA09
:1006D0000752CDE90042001C41F5801132462B46FD
:1006E000FFF753FF03B0BDE8F08F40462146F9E71E
:1006F000001B61EB0201001C41F5801300185B41F7
:100700002018A2F5001747EB030140EAD570B6198F
:100710006D4111E06D084FEA360645EAC0754FEAB3
:100720000752001B61EB0201001C41F580114908D2
:100730004FEA30000019514132462B4603B0BDE864
:10074000F04FFFF713BF0098012240000023D0EBC9
:10075000020263EBE073009821464FEAE074B8EBC5
:10076000000061EB0401E9E783F000435BE781F0FF
:10077000004158E72DE9F04D81EA030404F0004BF5
:1007800021F0004514464FF0000A23F0004150EAE2
:10079000050220D054EA01021DD0C5F30A570246D3
:1007A000C5F31303C1F31300C1F30A5640F48015D7
:1007B00043F48013A7EB0608101BD64608F2FD3859
:1007C00073EB050002D308F1010801E092185B41C8
:1007D000B8F1000F03DA00200146BDE8F08D0020DB
:1007E0004FF48011064684460EE0171B73EB050795
:1007F00005D3121B63EB050306434CEA010C4908C1
:100800004FEA300092185B4150EA0107EDD152EAFD
:10081000030012D082EA040083EA0501084305D0F0
:10082000101BAB4106D20122002306E000224FF04C
:10083000004302E06FF0010253101AEB06004CEB8C
:10084000085110EB0A0041EB0B01BDE8F04DFFF73A
:100850008DBEC1F30A52C1F3130140F2FF3341F4DC
:1008600080119A4202DA00200146704740F2334379
:100870009A42A2F2334202DC5242FFF79FBC00F0E0
:100880002BB8000030B5041E71F1000404DB4FF0FA
:100890000044404264EB0101141E73F1000405DBC7
:1008A0001C464FF00043524263EB0403994208BFD9
:1008B000904230BD064C074D06E0E06840F0010371
:1008C00094E8070098471034AC42F6D3FFF712FCC7
:1008D000C4410008E4410008202A04DB203A00FA61
:1008E00002F1002070479140C2F1200320FA03F387
:1008F000194390407047202A06DBCB17203A41FA73
:1009000002F043EAE07306E041FA02F3D040C2F19C
:1009100020029140084319467047FEE7704772B6BF
:10092000FEE700002DE9F047244C0646616811F00F
:10093000FF4F0BD03046FFF7C7FCFFF756FD20F006
:100940000040322801DD666800E066601C4D2078BA
:1009500045F82060401CC0B220700A2801D3002056
:1009600020700027DFF85C80B9463C46484655F8C1
:1009700024603146FFF756FC814639463046FFF782
:100980006DFD01D255F8247055F824004146FFF75B
:100990005BFD01D255F82480641CE4B20A2CE5D337
:1009A00039464846FFF790FC4146FFF78DFCBDE80D
:1009B000F0476FF00201FFF78DBC0000A40000209B
:1009C0006C2E002000007A440020064A014600BF39
:1009D00042F82010401CC0B20A28F9D30248017026
:1009E000416070476C2E0020A40000202DE9F84FD4
:1009F000DFF8B8910024A9F1040B23460F2709F171
:100A0000040AABF1040EC9E00125A5402A40AA4220
:100A10007DD1674ED1F804C0ACEB0608B44532D0A6
:100A200014DCBCF1030F3AD009DCBCF1000F2AD072
:100A3000BCF1010F1CD0BCF1020F31D11DE0BCF1A3
:100A4000110F17D0BCF1120F2AD119E0B8F5881F89
:100A500019D006DCB8F5803F15D0B8F5801F1FD13E
:100A600011E0B8F5001F0ED0B8F5041F18D10AE048
:100A7000CB6815E0CB681B1D12E0CB6808330FE094
:100A8000CB680C330CE08B682BB1012B4FF00803C3
:100A900003D0456104E0042302E0056100E0002387
:100AA000FF2A01D8064601E000F104064FEA84055A
:100AB00001D9A5F12005D6F8008007FA05FC28EA3F
:100AC0000C0803FA05F548EA0508C6F800804D68E9
:100AD000ED0062D5374DAE6946F00106AE61AD69F5
:100AE00024F0030605F001050095334D06EB050CD7
:100AF000DCF80850A607360F07FA06F825EA0805BD
:100B0000DFF8B880404503D14FF0000817E044E01B
:100B1000DFF8AC80404502D14FF001080FE0DFF86C
:100B2000A480404502D14FF0020808E0DFF8988029
:100B3000404502D14FF0030801E04FF0040808FAE5
:100B400006F848EA0508CCF808804D68D9F8006036
:100B5000ED024D4601D5164300E096432E604D68E8
:100B6000DAF80060AD02554601D5164300E0964321
:100B70002E604D68DBF80060AD035D4601D516437D
:100B800000E096432E604D68DEF80060ED03754688
:100B900001D5164300E096432E60641C0D682A467A
:100BA000E5407FF431AFBDE8F88F00000804014054
:100BB0000000111000100240000001400008014038
:100BC000000C014000100140001401408068084002
:100BD00000D0012070470AB1016170470904FBE7AA
:100BE00001488068704700001400002002488168B6
:100BF000027811448160704714000020074810B546
:100C0000016841F010010160032000F0A7F80F20F7
:100C100000F006F800F050F8002010BD002002405F
:100C200030B50546204887B0C16941F00101C16176
:100C3000C06906A900F00100009001A800F036F993
:100C40000498B8B100F052F9400018494FF08042C2
:100C5000B0FBF1F11648491E0260416040F2E732F4
:100C60000021C0E903218160816100F017FB0400CD
:100C700003D015E000F03AF9E7E70D4800F064FB17
:100C800004000DD11C2000F03BF8102D07D20022EB
:100C900029461C2000F042F80648056000E00124C7
:100CA00007B0204630BD00000010024040420F0057
:100CB00008010020180000200F4808B5816941F0A4
:100CC00001018161816901F001010091C16941F077
:100CD0008051C161C069002200F0805000900F2156
:100CE000901E00F01BF80548416821F0E06141F0DA
:100CF0000071416008BD000000100240000001408A
:100D0000002809DB00F01F0201219140400980000A
:100D100000F1E020C0F8001170470000F0B40E4B65
:100D20001B680C46C3F30223C3F10705042D00D949
:100D30000425191D072901D2002300E0DB1E01262E
:100D400006FA05F1491E214099409E40761E164044
:100D50003143F0BC01F006B90CED00E0064900F0AB
:100D6000070208684FF6FF03184040EA0220034AD2
:100D700010430860704700000CED00E00000FA0529
:100D80002DE9F0470F46050061D0434E306800F072
:100D90000700B84209D2306820F0070038433060BD
:100DA000306800F00700B84251D128683B4C8107F9
:100DB00012D5400703D5606840F4E0606060287891
:100DC000000703D5606840F4605060606068A968FF
:100DD00020F0F000084360602878C00728D06868D9
:100DE000012810D02168022810D0890700292EDAA6
:100DF000616821F0030101436160FFF7F1FE804665
:100E000041F288390DE021688903EFE78901EDE7B8
:100E1000FFF7E6FEA0EB0801494502D90320BDE833
:100E2000F0876068696800F00C00B0EB810FEFD1CB
:100E3000306800F00700B8420BD9306820F0070096
:100E400038433060306800F00700B84201D001201C
:100E5000E5E72878400705D56068E96820F4E06098
:100E6000084360602878000706D56068296920F487
:100E7000605040EAC100606000F058F86168084ABC
:100E8000C1F30311515CC840064908600648006878
:100E9000FFF7C6FE0020C2E700200240001002401B
:100EA0006A41000820000020180000200F22026084
:100EB0000C4A536803F003034360536803F0F003E4
:100EC0008360536803F4E063C36052684FF4E063E7
:100ED00003EAD20202610448006800F007000860DB
:100EE00070470000001002400020024004480549FD
:100EF00000684968044AC1F30221515CC840704748
:100F000020000020001002407A41000804480549F2
:100F100000684968044AC1F3C221515CC840704767
:100F200020000020001002407A4100080E4A51685B
:100F30000E4801F00C03042B11D0082B0FD10C48E4
:100F4000C1F38343C903C05C0AD55168084AC1F3A1
:100F50004041921E515C054A5043B0FBF1F070478E
:100F600004494843704700000010024000127A0014
:100F70005A41000800093D002DE9F84F040070D0E7
:100F80002078C04DC00749D06868C0F381000128AF
:100F900007D06868C0F38100022809D16868C003DF
:100FA00006D52868800339D560680028E7D035E089
:100FB0006068B0F5803F0BD010B1B0F5A02F11D014
:100FC000286820F480302860286820F4802002E01F
:100FD000286840F480302860606890B1FFF700FE18
:100FE00006460AE0286840F480202860F0E700BF49
:100FF000FFF7F6FD801B642873D828688003F7D5B7
:101000000CE0FFF7EDFD064605E000BFFFF7E8FD49
:10101000801B6428F0D828688003F7D420789A4E83
:1010200080074FF001094FF0000839D5686810F0CB
:101030000C0F07D06868C0F38100022809D16868E6
:10104000C00306D42868800714D52069012808D178
:1010500010E02069B0B1C6F80090FFF7C1FD074667
:1010600005E00AE1FFF7BCFDC01B0228C4D82868D0
:101070008007F7D52868616920F0F80040EAC100D0
:1010800028600DE0C6F80080FFF7AAFD074604E0DF
:10109000FFF7A6FDC01B022823D828688007F7D4D5
:1010A000207800072CD57948A169D9B1C0F8009003
:1010B000FFF796FD074604E0FFF792FDC01B0228EC
:1010C0000FD8686A8007F7D571484FF4FA51006865
:1010D000B0FBF1F0009000BF0098411E0091FAD2E1
:1010E0000EE080E0C0F80080FFF77AFD074604E0DC
:1010F000FFF776FDC01B022875D8686A8007F7D411
:101100002078400760D5E8690027C00008D4E86966
:1011100040F08050E861E869012700F080500090BD
:101120005C480168C90513D40168834641F48071A5
:101130000160FFF755FD824606E000BFFFF750FD56
:10114000A0EB0A0064284ED8DBF80000C005F5D5F6
:10115000E06801280AD008B1052813D0286A20F0D9
:1011600001002862286A20F0040002E0286A40F0AA
:1011700001002862E06841F2883B98B1FFF730FD3A
:1011800082460BE0286A40F004002862EEE700BFC8
:10119000FFF726FDA0EB0A0159455AD8286A8007B7
:1011A000F6D50CE0FFF71CFD824605E0FFF718FDC1
:1011B000A0EB0A0159454CD8286A8007F6D41FB124
:1011C000E86920F08050E861E06988B36968C1F39C
:1011D0008101022944D00228C6F8608004D0FFF7BC
:1011E000FFFC044638E034E0FFF7FAFC074604E071
:1011F000FFF7F6FCC01B02282BD828688001F7D423
:10120000206AB0F5803F05D16868A16820F40030FD
:1012100008436860D4E908010843696821F474113F
:1012200008436860C6F86090FFF7DAFC044606E001
:1012300025E000BFFFF7D4FC001B022809D828686E
:101240008001F7D51BE000BFFFF7CAFC001B022896
:1012500002D90320BDE8F88F28688001F4D40EE09D
:101260000128F7D06868226A00F48031914204D1E5
:10127000616A00F47010884201D00120EAE7002082
:10128000E8E70000001002400000424280044242B1
:1012900020000020007000407047704710B5040027
:1012A00003D094F83D0010B107E0012010BD0020EC
:1012B00084F83C00204600F01EF8022084F83D002F
:1012C000211D206800F00AFC012084F8460084F803
:1012D0003E0084F83F0084F8400084F8410084F820
:1012E000420084F8430084F8440084F8450084F800
:1012F0003D00002010BD704790F83D10012901D03D
:1013000001207047022180F83D1000680B49884297
:1013100008D0B0F1804F05D00949884202D0094970
:10132000884204D1816801F00701062903D00168D1
:1013300041F001010160002070470000002C0140D5
:10134000000400400008004090F83D10012901D041
:1013500001207047022180F83D100168CA6842F000
:101360000102CA6000680B49884208D0B0F1804F82
:1013700005D00949884202D00849884204D18168D1
:1013800001F00701062903D0016841F00101016065
:1013900000207047002C014000040040000800407D
:1013A00001680A6A41F211131A4207D10A6A9B10B6
:1013B0001A4203D10A6822F001020A60012180F872
:1013C0003D100020704770472DE9F0410446006849
:1013D000C66805694FF00007A90713D5B10711D5F5
:1013E000F91E01610120207720688069800720466E
:1013F00002D0FFF7E8FF04E000F07EF8204600F09E
:101400007CF82777680716D5700714D521686FF028
:1014100004000861022020772068806910F4407F72
:10142000204602D0FFF7CFFF04E000F065F8204629
:1014300000F063F82777280715D5300713D5216802
:101440006FF008000861042020772068C0698007D9
:10145000204602D0FFF7B7FF04E000F04DF8204629
:1014600000F04BF82777E80616D5F00614D521686A
:101470006FF010000861082020772068C06910F420
:10148000407F204602D0FFF79EFF04E000F034F8D2
:10149000204600F032F82777E80708D0F00706D09A
:1014A00021686FF001000861204600F027F8280647
:1014B00008D5300606D521686FF080000861204607
:1014C000FFF7EAFE680608D5700606D521686FF0BA
:1014D00040000861204600F018F8A8060AD5B006BA
:1014E00008D521686FF0200008612046BDE8F04172
:1014F000FFF7D3BEBDE8F081704770470068B0F1D8
:10150000804F01D1FFF772BB7047704770B5040080
:1015100004D094F84100002510B106E0012070BD10
:1015200084F84050204600F023F8242084F841003D
:101530002068C16821F40051C160204600F06CFCB5
:101540002068016921F4904101612068416921F01E
:101550002A0141612068C16841F40051C16065649D
:10156000202084F8410084F842006563002070BDAB
:1015700030B585B00024009401940294039400686F
:101580001449884224D11448816941F48041816121
:10159000816901F480410491816941F00401816114
:1015A00080690E4D00F0040004904FF4007000902C
:1015B000022001900320039069462846FFF716FA9F
:1015C0002815CDE90004694628460294FFF70EFA73
:1015D00005B030BD00380140001002400008014055
:1015E0002DE9F843044690F84100984616460D460A
:1015F000202802D00220BDE8F88385B17EB100200A
:101600006064212084F84100FFF7EAFAA68481464D
:10161000E684A0682027B0F5805F02D003E00120B7
:10162000E9E7206910B12E4600250EE000260CE007
:101630008021204600F04CFCA8B9C6B116F8010B79
:1016400021684860E08C401EE084E08C4B464FF0FF
:101650000002CDF800800028EAD14FF0400120467A
:1016600000F036FC40B184F841700320C3E735F840
:10167000020BC0F30800E3E784F841700020BAE7EA
:1016800070B500F017FA224C012280212046FFF7A6
:10169000A2FA00BF00F0C6F90A28FBD3002280217D
:1016A0002046FFF798FA00F0B5F90025194E06E03C
:1016B0006D1CB54203DD00F007FA174870BD4021EC
:1016C0002046FFF783FA0028F2D0002500F0A2F9A7
:1016D000124E07E06D1CB54204DD00F0F5F94FF045
:1016E000404070BD40212046FFF770FA0128F1D03C
:1016F00000F098F9044600F0E7F92046FEF768FE8E
:10170000074A084BFEF7F2FDBDE87040FEF780BEC9
:101710000008014080969800000080BFA08601006C
:10172000006F8104C58F913F70B586B014480024C6
:101730000294816941F0040181618069114E00F0D9
:101740000400049080200090012003250190694648
:1017500003953046FFF74AF94020CDE90004694679
:101760003046CDE90245FFF741F90022802130469D
:10177000FFF731FA04A000F0E5FB06B070BD0000F1
:10178000001002400008014048432D5352303420DD
:10179000696E697469616C697A65642E0D0A00006E
:1017A000FEE70000F0B585B0154800250295816977
:1017B00041F0040181618069012400F0040000947B
:1017C00003260194CDE903600E4F69463846FFF7C2
:1017D0000DF902208DE8710069463846FFF706F9D9
:1017E000002201213846FFF7F6F90022022138468F
:1017F000FFF7F1F904A000F0A5FB05B0F0BD000073
:1018000000100240000801404C45447320696E6995
:101810007469616C697A65642E0D0A0010B5044A1A
:101820000021044801F076F80349086010BD00006B
:10183000A4400008E5180008000000200D4810B57D
:101840000B4901604FF4E1314160002181600C22BD
:10185000C160C0E904128161C161FFF757FE08B1A0
:10186000FFF75DF8BDE8104003A000F06BBB00007F
:1018700000380140C00000205553415254312069C6
:101880006E697469616C697A65642E0D0A000000E6
:10189000FEE7FEE703490120886003490020087045
:1018A00070470000B4000020AC0000200A4910B5C9
:1018B000884201DC022000E00120084A0023084998
:1018C0009468844206D00C78641CE4B20C700A2C34
:1018D00001D390600B7010BD00004842B40000209E
:1018E000AC00002010B515A000F02CFB01F0FEFCB0
:1018F0001A4A00211A4801F00DF81A4C174A002123
:1019000060602432184801F005F8144AA06048329B
:101910000021164800F0FEFF104AE0606C32002102
:10192000134800F0F7FF206112A000F00BFB01F05C
:10193000FDFCBDE81040002001F0D6BD44656661A5
:10194000756C74207461736B2069732072756E6E90
:10195000696E672E2E2E0D0A00000000C840000898
:101960002D1C000800000020991B0008951D000890
:10197000551B0008416C6C207461736B732063729B
:1019800065617465642E0D0A0000000010B54FF00B
:10199000E020006902F0D0F9012803D0BDE8104032
:1019A00001F0FEBE10BD30B58FB028216846FEF7AD
:1019B0002EFC14210AA8FEF72AFC01210804CDE917
:1019C00000100024029402250491CDE907504FF441
:1019D000E01009906846FFF7CFFA08B172B6FEE74B
:1019E0000F20CDE90A054FF48060CDE90C400221BB
:1019F0000AA80E94FFF7C4F9002801D072B6FEE7DA
:101A00000FB030BD704700000148FFF7DDBC00009B
:101A10000801002002490020096848627047000060
:101A20005001002001480068406A704750010020C2
:101A3000134808B5C16941F00201C161C06911498B
:101A400000F00200009010484FF6FE72016047213E
:101A500041600021C0E9021201618161FFF71EFCB3
:101A6000012804D109A000F06DFAFEF758FF00F03C
:101A70002BF8FFF7CFFFBDE8084009A000F062BADD
:101A800000100240000400405001002054494D3332
:101A900020496E6974204572726F7221210D0A000F
:101AA00054494D3320696E697469616C697A656463
:101AB0002E0D0A0010B5FFF7ADFFBDE8104001483C
:101AC000FFF71ABC5001002010B50348FFF768FC6F
:101AD000BDE81040FFF79EBF50010020F0B502683E
:101AE000194B1A4C1A4D4FF08047984205D0B84216
:101AF00003D0A04201D0A84203D122F070064A6868
:101B00003243984205D0B84203D0A04201D0A84247
:101B100003D122F44074CA6822434C6922F0800247
:101B2000224302608A68C2620A688262984201D1D6
:101B300009690163012141610169C90703D0016994
:101B400021F001010161F0BD002C014000040040C2
:101B5000000800404FF47A7403A000F0F3F9204627
:101B600000F09DFEF8E70000E4BD8EE58A9FE88066
:101B700097E6A8A1E5BC8FEFBC8CE5BC80E5A78B00
:101B8000E6A380E6B58BE8BDA6E4BD8DE78AB6E6A0
:101B900080812E2E2E0D0A00134C144D14A000F03F
:101BA000D1F96068FFF782FE19A0A16800F0CAF9B8
:101BB000A06801280FD0022814D001220121284654
:101BC000FFF709F8012202212846FFF704F86420F4
:101BD00000F065FEE2E7012211462846FEF7FBFF12
:101BE0000022F0E70022E9E7B400002000080140ED
:101BF000E5BC80E5A78BE588A4E696ADE8BDA6E444
:101C0000BD8DE78AB6E680812E2E2E0D0A000000DB
:101C1000E5BD93E5898DE8BDA6E4BD8DE78AB6E60E
:101C200080813A2025640D0A000000000020174C36
:101C3000174D2060606017A000F084F9FFF720FDC9
:101C40002060A84201D11CA01CE0B0F1404F18D088
:101C5000FEF7CBFB02460B4624A000F073F92FA041
:101C600000F070F92068FEF75DFE6060FEF7BDFBD6
:101C700002460B4631A000F065F9642000F00FFE2B
:101C8000D9E735A000F05EF9F7E70000B4000020C6
:101C9000000080BFE88EB7E58F96E8B685E5A3B073
:101CA000E6B3A2E4BCA0E6849FE599A8E695B0E679
:101CB0008DAE2E2E2E0D0A00E8B685E5A3B0E6B354
:101CC000A2E4BCA0E6849FE599A8E697A0E5938DE1
:101CD000E5BA94EFBC8CE88EB7E58F96E695B0E652
:101CE0008DAEE5A4B1E8B4A50D0A0000E8B685E51F
:101CF000A3B0E6B3A2E4BCA0E6849FE599A8E6956C
:101D0000B0E68DAEE88EB7E58F96E68890E58A9FBF
:101D10003A20252E326620636D0D0A00E6ADA3E55C
:101D20009CA8E8BF9BE8A18CE695B0E68DAEE6BB2B
:101D3000A4E6B3A22E2E2E0D0A000000E6BBA4E6F8
:101D4000B3A2E5908EE8B79DE7A6BB3A20252E32D8
:101D50006620636D0D0A0000E8B685E5A3B0E6B322
:101D6000A2E4BCA0E6849FE599A8E697A0E7A1AE0F
:101D7000E8AEA4E4BFA1E58FB7EFBC8CE88EB7E571
:101D80008F96E695B0E68DAEE5A4B1E8B4A50D0A50
:101D9000000000004FF4FA7403A000F0D3F82046CE
:101DA00000F07DFDF8E70000E5BC80E5A78BE4BC12
:101DB000A0E8BE93E695B0E68DAEE7BB99455350DB
:101DC00033322E2E2E0D0A0001680C3151E8002FFF
:101DD00022F4907241E80023002BF5D10168143100
:101DE00051E8002F22F0010241E80023002BF5D139
:101DF000016B012909D101680C3151E8002F22F053
:101E0000100241E80023002BF5D1202180F8421078
:101E1000002101637047000070B504460068016945
:101E2000E26821F44051114301612169A06808432F
:101E3000616908432168CA6841F20C639A4302430E
:101E4000CA6020684169A26921F44071114341616F
:101E50001E492068884202D1FFF758F801E0FFF7D9
:101E600045F800EBC00101EB0012606864218000BE
:101E7000B2FBF0F3B3FBF1F36FF018067343B2FB60
:101E8000F0F5B2FBF0F605EB8305322303EB051505
:101E9000B5FBF1F5B6FBF1F605F0F00505EB06151F
:101EA000B2FBF0F6B2FBF0F0B0FBF1F06FF018020D
:101EB000504306EB800003EB0010B0FBF1F021680B
:101EC00000F00F002844886070BD00000038014019
:101ED0002DE9F843984617460D460446089E24E02F
:101EE000701C22D0FEF77CFEA0EB0800B0421AD88E
:101EF000CEB12068C168490717D5802D15D0402D77
:101F000013D00168C94309070FD401680025406850
:101F100000902046FFF758FF0820606484F8405086
:101F20000120BDE8F8830320FBE72068006835EA5C
:101F3000000004D00020B842D2D00020F1E70120F8
:101F4000F9E7FEE70FB4054B10B503A9044A029860
:101F500000F0EAF810BC5DF814FB000059280008F6
:101F6000B00000200907090E002804DB00F1E02082
:101F700080F80014704700F00F0000F1E02080F8B6
:101F8000141D704702E008C8121F08C1002AFAD1C8
:101F900070477047002001E001C1121F002AFBD1E9
:101FA000704700002DE9FF5F82B00021DDE90430B9
:101FB000020DDDF840B0034318D044F61050A2F2F1
:101FC000FF3242431514119801281FD0A5EB0B00D6
:101FD000401C5FEA000A4FF000064E4FDFF83891D0
:101FE000B046504615D5CAF1000413E011980124FB
:101FF0004AA3012801D16FEA0B010298119AC0E9A6
:102000000031C0E9024206B0BDE8F09FCBF100000C
:10201000DFE704460021404A491842EB0450CDE96D
:10202000001012E0E00707D032463B4640464946E2
:10203000FEF75CF98046894632463B461046194613
:10204000FEF754F906460F466410002CEAD1DDE98C
:102050000401DDE90023BAF1000F06DAFEF746F9C4
:1020600042464B46FEF742F905E0FEF783FB424647
:102070004B46FEF77FFB04460E460022284BFEF738
:1020800001FC03D84FF0FF30014607E00022254B4A
:1020900020463146FEF7C7FAFEF7DBFB102409E0C5
:1020A000002C0ADB0A220023FEF7F8F9039B3032EA
:1020B0001A55641E50EA0102F2D1641C039AC4F15D
:1020C00011031444119A012A03D0012208430DD1AF
:1020D0000AE0084304D000204FF0110B119072E782
:1020E000A3EB0B056D1E0DE05B4504DD4FF0000218
:1020F00005F1010504E003DA4FF00002A5F1010546
:10210000002AECD002981199C0E90231C0E90045DB
:1021100079E70000000014400000F03F30000000AC
:102120000000F0430000E03F2DE9FF4F95B09B46D3
:102130008946064600250FE2252877D10024274648
:10214000F84A0121059400E0044316F8013F203BC2
:1021500001FA03F01042F7D130782A2811D06FF03D
:102160002F033078A0F13002092A16D8059A44F0DE
:10217000020402EB820203EB42021044761C05903B
:10218000EFE759F8042B0592002A03DA504244F491
:102190000054059044F00204761C30782E2816D1A5
:1021A00016F8010F44F004042A280DD06FF02F0216
:1021B0003078A0F13003092B09D807EB870302EB35
:1021C0004303C718761CF3E759F8047B761C307874
:1021D0006C280FD006DC4C2817D068280DD06A2850
:1021E00014D104E0742810D07A280FD10DE044F403
:1021F00000140AE044F4801401E044F440147278BE
:10220000824202D104F58014761C761C3078662850
:102210000BD013DC582877D009DC002875D045286E
:10222000F6D04628F4D047281AD19DE118E063285B
:1022300035D0642879D0652812D195E1702873D003
:1022400008DC6728F1D069286FD06E280DD06F2880
:1022500006D1B5E073282CD0752875D0782874D0B5
:102260005A46179990476D1C75E1C4F30250022835
:1022700009D003280DD0D9F8001004280DD00D6026
:1022800009F1040967E1D9F80010EA17C1E9005221
:10229000F6E7D9F800100D80F2E70D70F0E719F8B5
:1022A000041B8DF8001000208DF80100EA46012083
:1022B00003E059F804AB4FF0FF3061074FF0000125
:1022C00002D40DE008F101018846B9420FDA8045D9
:1022D000F8DB1AF808100029F4D108E008F1010130
:1022E00088468142FADB1AF808100029F6D10598D1
:1022F0005B46A0EB080721463846179A00F094FA8F
:10230000284400EB080507E04DE029E10DE01AF84C
:10231000010B5A4617999047B8F10108F7D25B466E
:1023200021463846179A13E142E00A220092C4F38C
:1023300002524FF0000A022A08D059F804CB032AAF
:102340004FEAEC710AD00DE029E02AE009F107011B
:1023500021F00702F2E802C1914609E00FFA8CFC75
:102360004FEAEC71042A03D14FFA8CFC4FEAEC716E
:10237000002907DA0A460021DCF1000C61EB0201BA
:102380002D2202E0220504D52B228DF80420012203
:1023900003E0E20701D02022F7E7904659E00A2146
:1023A00002E010220DE010214FF0000A00910BE036
:1023B00010224FF0000A44F004040827009203E0C2
:1023C00008224FF0000A0092C4F30252022A05D0FC
:1023D00059F804CB0021032A08D009E009F10701CC
:1023E00021F00702F2E802C1914605E01FFA8CFCD9
:1023F000042A01D10CF0FF0C4FF00008220728D569
:10240000702806D0009B83F0100353EA0A0305D01E
:102410000EE040228DF80420012208E05CEA01026F
:1024200006D030228DF804208DF805000222904657
:10243000009B83F0080353EA0A030AD15CEA010215
:1024400001D1620705D530228DF804204FF0010834
:102450007F1E582804D034A003900EA802900DE0EF
:1024600036A0F9E753466046009AFEF717F884460F
:102470000398825C0298401E029002705CEA0100A0
:10248000F0D1029806A9081A00F1200A600702D5C7
:1024900024F4803400E00127574502DDA7EB0A0051
:1024A00000E0002000EB0A01009005984144401A2A
:1024B0000590E00306D45B462146179A059800F084
:1024C000B3F90544002706E001A85A46C05D1799F4
:1024D00090476D1C7F1C4745F6DBE0030CD55B463F
:1024E0002146179A059800F09FF9054404E0302032
:1024F0005A46179990476D1C0099481E0090002974
:10250000F5DC08E0029802995A460078491C0291CD
:10251000179990476D1CBAF10001AAF1010AF1DC8C
:1025200065E1000009280100303132333435363797
:10253000383961626364656600000000303132330F
:1025400034353637383941424344454600000000AF
:1025500000F058F90544761C307800287FF4ECAD83
:1025600019B02846BDE8F08F620700D4062709F1AC
:10257000070222F0070CFCE80223E14603F00048C2
:102580005FEA080C02D00FF2702C0DE05FEA045CE9
:1025900002D50FF2682C07E05FEAC47C02D00FF28C
:1025A000602C01E0AFF2700C4FF0FF3823F00043D5
:1025B000CDF850C065280CD006DC452809D0462847
:1025C0001DD047283DD13DE0662818D067287ED130
:1025D00038E00021112F01DB112000E0781CCDE94B
:1025E000000106A90EA8FFF7DDFCDDE90F010E9A38
:1025F00003910021009207F1010A04914DE04FF090
:1026000000400097CDE9011006A90EA8FFF7CAFC0B
:10261000DDE90F0203920E9B11990022DDF80CA058
:102620000093049211B9791C00EB010AB7EB0A0080
:1026300004D4C0F1FF3007F1010A0490AAEB0700AF
:10264000019044E0012F00DA01270021112F01DD64
:10265000112000E03846CDE9000106A90EA8FFF7D9
:10266000A1FCDDE90F010E9A039100210491009273
:10267000BA4621070CD40399514500DA8A46BAF1CB
:10268000010F05DD009AAAF10101515C302908D043
:10269000B84202DA10F1040F06DA0121CDE9011087
:1026A00015E0AAF10101E9E7002805DC04990144DD
:1026B0000491AAEB000102E0411C514500DD8A466D
:1026C0000499401A401C01904FF0004002902007EE
:1026D00004D40198504501DBCDF8048000208DF82A
:1026E0004F0002980DF14F07B0F1004F25D02B207D
:1026F0000E9002984FF0020800280CDA4042029037
:102700002D200E9007E00A210298FDF7B1FE30312E
:10271000029007F8011DB8F10001A8F10108F2DCF0
:1027200002980028EFD1791E0E980870307800F0DA
:10273000200040F0450007F8020D12A8C01B00F170
:1027400007081498007800B1012000EB0A010198F5
:1027500001EBE07105984144401A401E0590E003EA
:1027600006D45B462146179A059800F05DF80544AB
:102770001498007818B15A46179990476D1CE003D9
:1027800024D55B462146179A059800F04DF805447C
:102790001CE00498002807DBDDE90301884203DD23
:1027A0000098405C179901E0179930205A469047ED
:1027B000049805F10105401C04900198401E019009
:1027C00004D12E205A46179990476D1CBAF100018A
:1027D000AAF1010ADDDC05E017F8010B5A4617994A
:1027E00090476D1CB8F10001A8F10108F4DC5B46CC
:1027F0002146179A0598ABE62D0000002B0000003B
:10280000200000002DE9F041044600251E46174631
:10281000880404D405E039462020B0476D1C641EAE
:10282000F9D52846BDE8F0812DE9F04104460025A0
:102830001E469046C80301D5302700E020278804B3
:1028400004D505E041463846B0476D1C641EF9D5F5
:102850002846BDE8F081000013B54FF0FF33012298
:1028600069460248FEF7BCFE00981CBDC00000206F
:10287000FEF7C4F9FFF797F8FEF7E0FFFEF792FFC7
:10288000FEF752FFFFF7D4F8FEF79EF8FFF702F8C5
:1028900000F012F8FEF7C2FF00F020F8FEE710B5D6
:1028A000EFF3058111B16FF0050403E0002408B1D6
:1028B00000F0F4FD204610BDEFF3058010B16FF07D
:1028C000050070470448016811B14FF0FF307047B0
:1028D00001210160002070477400002010B5EFF363
:1028E000058010B16FF0050010BD0848016801298E
:1028F00002D04FF0FF3010BD054A002182F8141DB0
:102900000221016000F07AFE002010BD740000205A
:102910000BE000E02DE9FF414FEA01034FF0000515
:10292000EFF30581039549BB40B3802718210024AC
:102930004AB3166806B1344696691EB13146761E12
:10294000382E02D21679F60703D0002004B0BDE875
:10295000F081566906B1B708D2F808C0BCF1000F83
:102960000DD0D5685C2D18D312693AB136B18DE817
:1029700006103A46214601F0B4F903900DE0D668FE
:102980005EB912694AB903AACDE90012BAB221466A
:1029900001F07AF9012800D003950398D6E70000EA
:1029A0002DE9F041134C0F460546E6682068001DEE
:1029B00000F040FC681C07D137B12168BDE8F04148
:1029C0000D48091D00F086BC20683544B5424560BD
:1029D000216805D2A06BBDE8F041091D00F062BC82
:1029E000606B091D00F05EFCA06A854200D2A56202
:1029F000BDE8F08124000020880600202DE9F04188
:102A0000054600F073FC2D4CA068401CA0602068B7
:102A10002B4F10B1606930B32BE02560A06801280E
:102A200027D1002606EB860007EB800000F02CFC87
:102A3000761C382EF6D3234800F026FC21481430AB
:102A400000F022FC1F48283000F01EFC1D483C30DE
:102A500000F01AFC1B48503000F016FC1948606367
:102A60001430A06305E02068E96AC06A884200D893
:102A70002560606A401C60626864E86A2169884277
:102A800000D9206100EB800007EB8000291D00F0D9
:102A900021FC00F04BFC606900280CD02068E96A3A
:102AA000C06A884207D208494FF080500860BFF3DF
:102AB0004F8FBFF36F8FBDE8F0810000240000202E
:102AC000D80100203806002004ED00E038B500F001
:102AD0000DFC104C2068C8B90F4800F0D5FB0E481B
:102AE000143000F0D1FB0C48E060143020610A4B38
:102AF0000020F03B009003F1500210210A2000F06A
:102B000065FE206010B105A100F092FCBDE83840E0
:102B100000F00CBC600000208C070020546D725146
:102B20000000000030B4026C0B46002A0BD0C168D4
:102B30001144C1608468A14201D30168C16030BC06
:102B40001846FDF74BBB30BC70472DE9F041856B53
:102B5000174604460026026C82B1C7B1E068FDF753
:102B60003DFBE168206C091AE1602268914202D2C3
:102B7000A168081AE060022F16D017E02068A8B9F3
:102B8000A06801F051F906460020A0600EE06068E0
:102B9000FDF724FB216C606808446060A1688842EE
:102BA00004D32068606001E005B16D1E6D1CA56353
:102BB0003046BDE8F08110B5044690F8590058B190
:102BC00001280CD002280FD0502080F31188BFF3C9
:102BD0004F8FBFF36F8FFEE7206B00F0BBFB2046EB
:102BE000BDE8104000F0B6BB10BD000010484FF427
:102BF0000051420706D0C01D0D4920F00700411AC0
:102C0000C1F500510B4A00230144C2E90003083911
:102C1000183A21F0070111604B600B600B1AC0E9F4
:102C2000001393604FF00040536050617047000004
:102C30006C0E002090000020144E154CA6F29C470C
:102C40004FF08058DFF84C9012E000BF00F04EFBD0
:102C5000F068C568281D00F0EDFAA068401EA0606D
:102C60006068401E606000F061FB2846FFF7A3FF2C
:102C700060680028EAD138680128F9D9C9F80080CD
:102C8000BFF34F8FBFF36F8FF2E700007406002091
:102C90002400002004ED00E070B51D46049C51B1F5
:102CA000C4F80020C4E90F010121204600F0C2FD54
:102CB00084F84C5070BD2460F4E700002DE9F05F0B
:102CC0008846DDE90B941546834691009A460A9E94
:102CD000A522206BFDF794FA6FF00301206B01EB46
:102CE0008501084420F00707780707D0502080F3BB
:102CF0001188BFF34F8FBFF36F8FFEE70025B8F148
:102D0000000F0FD05FF00000221818F8001082F8B2
:102D1000341018F8001011B1401C1028F4D384F8B6
:102D2000435001E084F83450382E00D33726E66251
:102D3000C4E91365201D00F0B2FA04F1180000F098
:102D4000AEFA2461C6F138006462A061656584F85A
:102D5000585052465946384600F05AFA2060B9F1A8
:102D6000000F01D0C9F80040BDE8F09F30B511490F
:102D700000E011460A688242FBD34B685C1884422B
:102D800003D1406818444860084643681C189442C0
:102D900009D1084C183C2468A24209D052681A4450
:102DA00042600A6812680260814200D0086030BD4B
:102DB0000460F9E79000002070B5002441600B4DDD
:102DC0000061914206D8D11A8269914206D2011D52
:102DD000286907E09A4203D2994201D3012403E013
:102DE000011DE86800F05EFA204670BD600000201A
:102DF00010B5044600F07AFAA06B28B15FF0000429
:102E000000F094FA204610BD0124F9E730B589B0EE
:102E10003C4D6EE00498002806DADDE90601059ACB
:102E200090470498002864DB069C606910B1201D5F
:102E300000F000FA03A800F0D7F8024604980A2828
:102E400057D2DFE800F00505052D334A05052D337F
:102E500094F8280040F0010084F828000599A06942
:102E6000059B01442046FFF7A7FF68B3216A20466F
:102E7000884794F8280040073BD50020009005982B
:102E8000A169002342181946204601F0D7F8D8B9A5
:102E9000502080F31188BFF34F8FBFF36F8FFEE791
:102EA00014F8280F20F00100207022E094F8280088
:102EB00040F0010084F828000598A06128B181182D
:102EC00013462046FFF778FF13E0502080F3118867
:102ED000BFF34F8FBFF36F8FFEE794F82800810791
:102EE00003D4204600F036FA03E020F0010084F815
:102EF0002800002204A9286800F0F0FD002889D1EC
:102F000009B030BD600000202DE9FC410F460546A8
:102F100000F0B8FB01A800F067F80446019818B16A
:102F200000F0FAFFBDE8FC81254EAFB130690068C2
:102F3000D0B30027291B3A46306800F08DFA00F024
:102F4000EBFF0028EED11F494FF080500860BFF31F
:102F50004F8FBFF36F8FE5E7A542EBD800F0DCFFA2
:102F6000F0682746C068C468201D00F063F994F833
:102F70002800410719D5A0692B4641193A46204639
:102F8000FFF71AFFA8B100200346014600902A4629
:102F9000204601F053F860B9502080F31188BFF348
:102FA0004F8FBFF36F8FFEE707E020F0010084F83A
:102FB0002800216A20468847B4E70127BAE70000C5
:102FC0006000002004ED00E00648416B096829B16B
:102FD000416BC968C9684968816270474FF0FF3129
:102FE000FAE700002400002070B5054600F0B2FEAC
:102FF000064E0446B068844203D200F009F801206E
:1030000000E0002028602046B46070BD6000002011
:10301000F8B5194D20E0C068C4680668201D00F0AE
:1030200009F9216A2046884794F82800400713D5FB
:10303000A0693044B04206D924616060211DE8686F
:1030400000F030F908E000200346014600903246C7
:10305000204600F0F3FF38B1E86801680029DAD1B2
:103060002969C5E90310F8BD502080F31188BFF32A
:103070004F8FBFF36F8FFEE7600000200848406865
:10308000401C4FF0500080F3118804D0BFF34F8FE5
:10309000BFF36F8FFEE7BFF34F8FBFF36F8FFEE776
:1030A00098000020074CE068016841B1C068002129
:1030B000D0F80000FFF728FFFFF7A8FEF3E7012193
:1030C0000020F7E7600000202DE9F041044600F001
:1030D0000DF994F9455004F1240609E0606A48B1FD
:1030E000304600F0E1FE08B100F04EFA6D1E6DB200
:1030F000002DF3DC4FF0FF3684F8456000F016F940
:1031000000F0F4F894F9445004F1100709E0206944
:1031100048B1384600F0C8FE08B100F035FA6D1E1F
:103120006DB2002DF3DC84F84460BDE8F04100F09E
:10313000FDB800002DE9F0410546002700F0A2FA95
:10314000324E306808B9FFF751FD706905424ED123
:10315000C5B3083568070ED005F00700C0F10800B8
:103160000544680707D0502080F31188BFF34F8FC4
:10317000BFF36F8FFEE72DB37068854237D82348C1
:10318000183001460C6801E020460C466168A942EF
:1031900002D221680029F7D131688C4227D0076814
:1031A0002168016060680837411B10290FD9601938
:1031B000420708D0502080F31188BFF34F8FBFF330
:1031C0006F8FFEE713E041606560FFF7CFFD616838
:1031D0007068401A7060B268904200D2B060706946
:1031E00001430020C4E90001F068401CF06000F0D9
:1031F00093FE780707D0502080F31188BFF34F8FDC
:10320000BFF36F8FFEE73846BDE8F08178000020FD
:1032100010B5031F4FF080741C601B1F21F00101CB
:103220001960191F024B0B60143940380A6010BD39
:103230007D300008D0E9013201699A60D0E90123AC
:103240005A604A68824201D182684A600022026163
:103250000868401E0860086870470000034B036060
:1032600003F15C000860802010607047B407002004
:10327000044B036003F15C0008604FF48070106041
:1032800070470000100A002000F108014FF0FF32E3
:10329000C0E90112C1600161002101607047002195
:1032A0000161704730B50B685A1C02D000F108026A
:1032B00002E0026904E02246546825689D42FAD97A
:1032C00053684B6099608A60516008610168491CCD
:1032D000016030BD42684A6093688B6093685960B2
:1032E000916008610168491C01607047502080F3BB
:1032F0001188BFF34F8FBFF36F8F0A494868401C96
:10330000486001280CD10848006810F0FF0F07D072
:10331000502080F31188BFF34F8FBFF36F8FFEE70C
:10332000704700009800002004ED00E0084948685C
:1033300028B1401E486001D180F3118870475020A9
:1033400080F31188BFF34F8FBFF36F8FFEE700004C
:103350009800002070B500282AD0164DA0F108046E
:1033600060686969084207D1502080F31188BFF373
:103370004F8FBFF36F8FFEE722683AB1502080F382
:103380001188BFF34F8FBFF36F8FFEE788436060F4
:1033900000F078F960686968084468602046FFF7C3
:1033A000E5FC2869401C2861BDE8704000F0B4BD10
:1033B00070BD0000780000204FF0E0200021016186
:1033C000816105494FF47A720968B1FBF2F1491E37
:1033D00041610721016170472000002010B5FCF712
:1033E000D7FE114910280ED300F1E02090F8F00329
:1033F0000A78904207D2502080F31188BFF34F8F94
:10340000BFF36F8FFEE709480068896800F4E06049
:10341000884207D9502080F31188BFF34F8FBFF344
:103420006F8FFEE710BD0000980000200CED00E05B
:1034300010B5084B002200BF53F832401CB1521C9B
:10344000082AF9D310BD43F8321003EBC2014860DB
:1034500010BD00009801002070B515460E460446C8
:10346000FFF744FF94F944100020491C01D184F86F
:10347000440094F94510491C01D184F84500FFF738
:1034800055FFA06B28B92A46314604F1240000F00C
:1034900099F82046BDE87040FFF716BE10B502004F
:1034A00014D00F48006B38B1502080F31188BFF35F
:1034B0004F8FBFF36F8FFEE700F0E4F80021104656
:1034C000FFF76EFA00F028FD002807D105494FF0FC
:1034D00080500860BFF34F8FBFF36F8F10BD0000A7
:1034E0002400002004ED00E070B50546FFF7FEFE65
:1034F0001E4C05B92568281DFFF79CFEA86A18B167
:1035000005F11800FFF796FE606A401C60622068B3
:10351000854207D1291D1648FFF7DCFE6068401C74
:10352000606007E0A068401EA0602846FFF743FBEC
:10353000FFF74AFDFFF7FAFE6069002814D0206803
:10354000854211D1206B38B1502080F31188BFF330
:103550004F8FBFF36F8FFEE706494FF08050086032
:10356000BFF34F8FBFF36F8F70BD000024000020AA
:103570007406002004ED00E002490A6A0260C9688E
:10358000416070472400002001490120C861704754
:103590002400002010B50C4650B1094909681831C3
:1035A000FFF780FE2046BDE810400121FFF7F8B983
:1035B000502080F31188BFF34F8FBFF36F8FFEE76A
:1035C0002400002070B514460D4668B10A49096808
:1035D0001831FFF77FFE0CB14FF0FF35214628462A
:1035E000BDE87040FFF7DCB9502080F31188BFF3CD
:1035F0004F8FBFF36F8FFEE72400002030B587B0F8
:103600000024039405AA04A903A80494FFF726FE46
:10361000DDE903010094CDE90110002315A117484D
:10362000059A00F05EFB164D0028E8621FD000F0FE
:10363000D5FC012809D0401C19D1502080F31188F5
:10364000BFF34F8FBFF36F8FFEE7502080F31188D9
:10365000BFF34F8FBFF36F8F4FF0FF30A862012091
:103660006861EC6007B0BDE8304000F045B807B0D5
:1036700030BD000049444C4500000000392C0008D2
:10368000240000200248016B491C016370470000C0
:1036900024000020164810B5016B11B10121C16151
:1036A00010BD0021C1610169124A01E0B9B1491E92
:1036B00001EB810352F82330002BF7D001EB81039B
:1036C00002EB830202F1080453685B685360A34273
:1036D00001D15B685360DA680260016110BD50205F
:1036E00080F31188BFF34F8FBFF36F8FFEE70000A9
:1036F00024000020D80100201CB52649087801903C
:10370000FF20087008788DF800009DF800009DF8F3
:10371000002000F0F000904207D0502080F3118884
:10372000BFF34F8FBFF36F8FFEE79DF800001A4C79
:1037300000F0500020700720A06005E09DF80020F8
:1037400052008DF80020401E9DF800201206F5D48E
:10375000A060032807D0502080F31188BFF34F8F5B
:10376000BFF36F8FFEE74FF44070A06001980870C0
:103770000A48016841F470010160016841F070413C
:103780000160FFF719FE00206060FCF7CBFC002011
:103790001CBD000000E400E09800002020ED00E0E7
:1037A00010B5502080F31188BFF34F8FBFF36F8F98
:1037B00000F0D6FA18B104494FF08050086000209C
:1037C00080F3118810BD000004ED00E038B5049DC1
:1037D00018B153B1CAB181B120E0502080F31188F3
:1037E000BFF34F8FBFF36F8FFEE7502080F3118838
:1037F000BFF34F8FBFF36F8FFEE7502080F3118828
:10380000BFF34F8FBFF36F8FFEE739B1502080F3C6
:103810001188BFF34F8FBFF36F8FFEE750241C4614
:10382000012384F846302B460094FFF735FA2046F2
:1038300038BD000070B50D46040025D0FFF756FDD9
:10384000D4E90F20216802FB0011A1600021A163CF
:10385000216861600A46D4E90F01401E00FB012186
:10386000E16021464FF0FF3001F8440F487004F149
:1038700010008DB1FFF708FD04F12400FFF704FDEF
:10388000FFF754FD012070BD502080F31188BFF375
:103890004F8FBFF36F8FFEE721690029F0D000F052
:1038A00003FB0028ECD004494FF080500860BFF3C0
:1038B0004F8FBFF36F8FE3E704ED00E02DE9FF4783
:1038C00082B01D468A464FF00008040003D0BAF1CA
:1038D000000F08D011E0502080F31188BFF34F8F04
:1038E000BFF36F8FFEE7206C38B1502080F3118852
:1038F000BFF34F8FBFF36F8FFEE7022D0AD1E06B4E
:10390000012807D0502080F31188BFF34F8FBFF3F9
:103910006F8FFEE700F010FA3F4F4FF000094FF0B5
:10392000805648B9049838B1502080F31188BFF30D
:103930004F8FBFF36F8FFEE7FFF7D8FCA06BE16BF3
:10394000884207D3022D05D00498D0B1B8F1000FFA
:103950001AD01EE02A4651462046FFF7F6F8616A63
:1039600019B104F1240000F09FFA20B13E60BFF3CA
:103970004F8FBFF36F8FFFF7D9FC012006B0BDE872
:10398000F087FFF7D3FC22E06846FFF7F5FD4FF024
:103990000108FFF7CBFCFFF775FEFFF7A7FC94F9D2
:1039A0004400401C01D184F8449094F94500401C27
:1039B00001D184F84590FFF7B9FC04A9684600F0EE
:1039C00029F930B12046FFF77FFB00F0A5FA00206F
:1039D000D4E7FFF78BFCA06BE16B884213D1FFF7B4
:1039E000A5FC04F110000499FFF7D4FD2046FFF771
:1039F0006BFB00F091FA00289ED13E60BFF34F8F21
:103A0000BFF36F8F98E7FFF791FC2046FFF75CFB51
:103A100000F082FA90E7000004ED00E02DE9F047A5
:103A20001F4690468946040003D0B9F1000F08D024
:103A300011E0502080F31188BFF34F8FBFF36F8FD9
:103A4000FEE7206C38B1502080F31188BFF34F8F10
:103A5000BFF36F8FFEE7022F0AD1E06B012807D07A
:103A6000502080F31188BFF34F8FBFF36F8FFEE7B5
:103A7000FFF7B4FC5020EFF3118680F31188BFF3F9
:103A80004F8FBFF36F8FA06BE16B884206D3022F7D
:103A900004D0002086F31188BDE8F08794F94550E2
:103AA000A06B3A4649462046FFF74FF8681C04D001
:103AB0006D1C84F845500120ECE7606A0028FAD0BC
:103AC00004F1240000F0F0F90028F4D0B8F1000F60
:103AD000F1D00121C8F80010EDE700002DE9F7470B
:103AE000002683B08A46040003D0BAF1000F08D044
:103AF00011E0502080F31188BFF34F8FBFF36F8F19
:103B0000FEE7206C38B1502080F31188BFF34F8F4F
:103B1000BFF36F8FFEE700F00FF9DFF8F4804FF08E
:103B200000094FF0805748B9059838B1502080F30C
:103B30001188BFF34F8FBFF36F8FFEE7FFF7D6FB00
:103B4000A56BC5B151462046FEF7ECFF6D1EA5637F
:103B5000206950B104F1100000F0A6F928B1C8F8AE
:103B60000070BFF34F8FBFF36F8FFFF7DFFB0120B4
:103B700006B0BDE8F087059808B11EB106E0FFF772
:103B8000D5FB27E06846FFF7F7FC0126FFF7CEFBE1
:103B9000FFF778FDFFF7AAFB94F94400401C01D120
:103BA00084F8449094F94500401C01D184F8459074
:103BB000FFF7BCFB05A9684600F02CF8002820465A
:103BC0000AD0FFF781FA00F0A7F92046FFF710F9B5
:103BD0000028B3D00020CBE7FFF70AF990B104F139
:103BE00024000599FFF7D6FC2046FFF76DFA00F098
:103BF00093F90028A2D1C8F80070BFF34F8FBFF32C
:103C00006F8F9BE72046FFF75FFA00F085F995E795
:103C100004ED00E02DE9F0410C46050011D0C4B1DF
:103C2000FFF764FB174BDA686E682068911B471C2E
:103C300017D02F681B6A9F4219D0964217D80124CB
:103C400010E0502080F31188BFF34F8FBFF36F8FC8
:103C5000FEE7502080F31188BFF34F8FBFF36F8FC3
:103C6000FEE70024FFF762FB2046BDE8F0818842B2
:103C700005D9401A20602846FFF77EFCF1E70020B6
:103C80002060DCE7240000202DE9FF5F8346DDE9AA
:103C90000E87994616468A469000FFF74BFA0500B4
:103CA0001CD05C20FFF746FA040014D000202563E6
:103CB00084F85900CDE90240CDE900874B463246F1
:103CC00051465846FEF7FAFF2046FEF797FE0120C0
:103CD00004B0BDE8F09F2846FFF73CFB4FF0FF30F3
:103CE000F6E7F0B585B0DDE90B640A9DA6B1DCB15D
:103CF0005C2700972663022684F85960002604AFEB
:103D0000CDE90246CDE90057FEF7D8FF2046FEF781
:103D100075FE049805B0F0BD502080F31188BFF304
:103D20004F8FBFF36F8FFEE7502080F31188BFF3F2
:103D30004F8FBFF36F8FFEE70548416919B1006BE4
:103D400018B1002070470120704702207047000022
:103D5000240000200148C0687047000024000020B3
:103D60002DE9F0412E4C0027206B28B1A069401CA2
:103D7000A0613846BDE8F081E668761CE66013D1A4
:103D8000606B006838B1502080F31188BFF34F8F0B
:103D9000BFF36F8FFEE7606BA16B6163A063206A66
:103DA000401C2062FFF710F9A06ADFF87880864295
:103DB00009D3606B0068A0B1606BC068C5686868B3
:103DC000864211D2A0622068C06A00EB800158F8D8
:103DD0002100012800D90127E0690028C9D0012766
:103DE000C7E74FF0FF30EDE7281DFFF723FAA86A79
:103DF00018B105F11800FFF71DFAE86A2169884239
:103E000000D9206100EB800108EB8100291DFFF73C
:103E100061FAE86A2168C96A8842CAD30127C8E7FB
:103E200024000020D801002070B504004FF00001EC
:103E300033D01B4D2868844207D0502080F311886E
:103E4000BFF34F8FBFF36F8FFEE7206D38B1401E79
:103E50002065E36CE26A9A421FD040B11DE0502019
:103E600080F31188BFF34F8FBFF36F8FFEE7201DE4
:103E7000FFF7E0F9E06CE062C0F13800A061E06AB1
:103E80002969884200D92861064900EB800001EBCE
:103E90008000211DFFF71EFA0121084670BD0000B9
:103EA00024000020D801002070B5C068C46854B157
:103EB00004F118000646FFF7BDF9144D286B50B108
:103EC0003146134815E0502080F31188BFF34F8F1F
:103ED000BFF36F8FFEE7201DFFF7ACF9E06A296999
:103EE000884200D928610B4900EB800001EB80007B
:103EF000211DFFF7EFF9E06A2968C96A884202D9F3
:103F00000120E86170BD002070BD00002400002089
:103F100060060020D80100202DE9F0472C4D002438
:103F20002746286B38B1FFF7E1F9286B401E28635C
:103F3000286B40B146E0502080F31188BFF34F8FCB
:103F4000BFF36F8FFEE7A968224E0120D1B3A6F51B
:103F5000916980463068E0B1F068C46804F11800E7
:103F6000FFF768F9201DFFF765F9E06A29698842C3
:103F700000D9286100EB800109EB8100211DFFF7CA
:103F8000A9F9E06A2968C96A8842E3D3C5F81C80A8
:103F9000E0E70CB1FFF718F8AC694CB14FEA08063E
:103FA000FFF7DEFE00B1EE61641EF9D10020A861CA
:103FB000E86938B10849012738070860BFF34F8F17
:103FC000BFF36F8FFFF7B2F93846BDE8F087000006
:103FD000240000206006002004ED00E010B586B04B
:103FE000FEF774FD114C2068B8B1002003900490D6
:103FF00005AA04A903A8FFF73BF9DDE90321022084
:104000008DE8070000230AA10B48059AFFF769FE17
:10401000606010B106B0012010BD502080F31188FF
:10402000BFF34F8FBFF36F8FFEE7000060000020EB
:10403000546D722053766300A53000082DE9FF41CE
:104040001E46134602000A9D4FF0000016D0144C85
:104050002768002F0FD0CDE900130292062917DA46
:10406000FFF76AFE02284FF000030FD000226946D6
:104070002068FFF723FC04B0BDE8F081502080F3F6
:104080001188BFF34F8FBFF36F8FFEE72A46EEE72D
:104090000023324669463846FFF7C0FCEBE70000D4
:1040A00060000020B841000800000000000000008F
:1040B00000000000000000000002000018000000E6
:1040C0000000000000000000AC41000800000000FB
:1040D00000000000000000000000000000020000DE
:1040E00018000000000000000000000090410008DF
:1040F00000000000000000000000000000000000C0
:104100000002000017000000000000000000000096
:1041100084410008000000000000000000000000D2
:104120000000000000020000160000000000000077
:10413000000000009C41000800000000000000009A
:104140000000000000000000000200001500000058
:104150000000000000000000010202030405060741
:1041600008090A0B0C0D0E0F1010000000000000D3
:104170000000010203040607080900000000010214
:1041800003040000554152545461736B0000000059
:104190007061726B5461736B000000006C6F77503C
:1041A0006F7765725461736B0000000073656E7306
:1041B0006F725461736B000064656661756C745452
:1041C00061736B00E441000800000020B4000000AF
:1041D000841F000898420008B4000020E431000069
:1041E000941F000800000000000000000000000014
:1041F00000000000000000000100000010000000AE
:104200000000000000127A00000000000000000022
:10421000000000000000000000000000000000009E
:10422000000000000000000000000000000000008E
:10423000000000000000000000000000000000007E
:10424000000000000000000000000000000000006E
:10425000000000000000000000000000000000005E
:10426000000000000000000000000000000000004E
:10427000000000000000000000000000000000003E
:10428000AAAAAAAA00000000000000000000000086
:08429000000000000000000026
:04000005080000ED02
:00000001FF
